:020000040800F2
:1000000000500020890500081D0500082105000892
:1000100025050008290500082D050008000000003E
:100020000000000000000000000000003105000892
:100030003505000800000000390500083D050008EE
:10004000D1050008D1050008D1050008D105000838
:10005000D1050008D1050008D1050008D105000828
:10006000D1050008D1050008D1050008D105000818
:10007000D1050008D1050008D1050008D105000808
:10008000D1050008D1050008D1050008D1050008F8
:10009000D1050008D1050008D10500084105000878
:1000A000D1050008D1050008D1050008D1050008D8
:1000B000D1050008D1050008D1050008D1050008C8
:1000C000D1050008D1050008D1050008D1050008B8
:1000D000D105000869050008D1050008D105000810
:1000E000D1050008D1050008D10500080000000076
:1000F0000000000000000000000000000000000000
:0C01000000000000000000005FF808F1A3
:10010C0010B5054C237833B9044B13B10448AFF345
:10011C0000800123237010BD10000020000000009F
:10012C005C17000808B5034B1BB103490348AFF338
:10013C00008008BD00000000140000205C170008BF
:10014C0008B502681E4B9A4200D008BD01221D4919
:10015C001D4801F0A5F81D4B1A781AB100221C4954
:10016C001A700A70174B1A78F02A1DD01A78F12AD7
:10017C001ED01A78F22A1FD0154A11780829E4D813
:10018C0011781878134BC0B201EB810158541178D7
:10019C00114801EB810100680B44C3F8010013788E
:1001AC000133DBB2137008BD01220C4B1A7008BD71
:1001BC0001220B4B1A7008BD01220A4B1A7008BDA4
:1001CC00003801403C000020880000207300002013
:1001DC007200002040000020380000207600002033
:1001EC0075000020740000200122014B1A7070472A
:1001FC00340000200023012230B5092091B04FF4C7
:10020C0080310224CDE90233CDE904330893019304
:10021C000A920C9209934FF480320B934FF4E01333
:10022C00CDE9060106A8CDE90E230D9400F052FC91
:10023C0008B172B6FEE703460F254FF480622146E3
:10024C0001A80294039305930195049200F058FEC3
:10025C0008B172B6FEE711B030BD00BF2DE9F04F0A
:10026C000024A5B000F0D4F96149624BD1F8FC2010
:10027C00614D42F08072C1F8FC205C601A6842F05B
:10028C0001021A60FFF7B6FF5C4B069407949A695B
:10029C005B4842F020029A619A6904A902F020029C
:1002AC000292029A9A6942F004029A614FF48072A7
:1002BC009B6903F004030393039B524BCDE9042386
:1002CC0000F0ACFA22462146172000F0D7F917208F
:1002DC0000F010FA4FF4E1320C234B492846C5E9E3
:1002EC000244C5E9064429602C616A606B6100F028
:1002FC0039FF08B172B6FEE740F6FF730124434A9A
:10030C009360434B10465460136000F0AFFB834680
:10031C0000286AD101467B22049005A801F0DEF981
:10032C00224628463B498DF807B0DFF8ECA000F0D8
:10033C00B7FFDFF8E8903A4CDFF8E8803A4E0DE072
:10034C0099F80030CBB998F80030002B42D13378B3
:10035C002BB10123354A86F800B0137000279AF8A8
:10036C000030002BECD029488AF800B000F0AAFB32
:10037C0099F800300137002BE5D02D4B0DF1100C06
:10038C001D782C4B67601B6805EB8505A3602A4B19
:10039C001B682360294B1B68E36094E80F008CE812
:1003AC000F002A46264908A801F0C4F910354FF071
:1003BC00FF33012210480DF107018DF8075000F0B2
:1003CC0003FF0123194A137089F800B098F8003024
:1003DC00002BBCD04FF0FF339DF80720064804A932
:1003EC0000F0F2FE88F800B0B1E772B6FEE700BF8D
:1003FC0000ED00E0001000E088000020001002403A
:10040C00000801400000111000380140D00000200D
:10041C00003000403C00002034000020760000201A
:10042C00780000207500002074000020730000206C
:10043C007200002030000020000000202C00002062
:10044C00400000200E4B82B09A690E4942F0010226
:10045C009A619A6902F001020092009ADA6942F0FC
:10046C008052DA61DB6903F080530193019B4B6886
:10047C0023F0E06343F000734B6002B0704700BFA1
:10048C000010024000000140D0B500241E4B026851
:10049C0086B09A42CDE90244CDE9044401D006B0BD
:1004AC00D0BD03F558439A694FF4007642F480426C
:1004BC009A619A69022702F480420092009A9A6922
:1004CC0002A942F004029A619B69104803F00403EC
:1004DC0001930323019A0593CDE9026700F09EF97D
:1004EC0000234FF4806202A90848CDE9022304944A
:1004FC0000F094F922462146252000F0BFF8252073
:10050C0000F0F8F806B0D0BD0038014000080140FA
:10051C00FEE700BFFEE700BFFEE700BFFEE700BF3F
:10052C00FEE700BF704700BF704700BF704700BFB9
:10053C0000F080B8064B074A10B4526806491C6894
:10054C004FF480700C6010BC1A6000F083BA00BFCE
:10055C0030000020001000E02C000020034A044B67
:10056C00526804481A6000F033BF00BF001000E06E
:10057C003800002088000020704700BFFFF7FCFF08
:10058C000B480C490C4A002302E0D458C4500433E5
:10059C00C4188C42F9D3094A094C002301E01360BA
:1005AC000432A242FBD301F0A1F8FFF757FE7047CB
:1005BC00000000200C000020A817000810000020EC
:1005CC00E0000020FEE7000038B54FF47A730D4AC6
:1005DC00054611780C4AB3FBF1F31268B2FBF3F049
:1005EC0000F096F808B90F2D01D9012038BD04464A
:1005FC00024629464FF0FF3000F040F8034B2046EE
:10060C001D6038BD04000020000000200800002000
:10061C00074A08B51368032043F01003136000F079
:10062C001BF80F20FFF7D0FFFFF70CFF002008BDD1
:10063C0000200240034A044B11681B780B441360E2
:10064C00704700BFDC00002004000020014B18683C
:10065C00704700BFDC0000204FF6FF0C0649030278
:10066C00CA6803F4E06302EA0C02134343F0BF636D
:10067C0043F40033CB60704700ED00E01B4B00B53A
:10068C00DB68C3F30223C3F1070EBEF1040F03F1C1
:10069C00040C28BF4FF0040EBCF1060F1CD9A3F1BB
:1006AC00030C4FF0FF3303FA0CF322EA03024FF072
:1006BC00FF3303FA0EF321EA030303FA0CF313439B
:1006CC001B010028DBB20ADB00F1604000F5614041
:1006DC0080F800335DF804FB00229446E7E7044AF7
:1006EC0000F00F00024413765DF804FB00ED00E00F
:1006FC00FCEC00E0002807DB012300F01F01034A9B
:10070C0040098B4042F82030704700BF00E100E008
:10071C000138B0F1807F01D3012070474FF0E02306
:10072C004FF0F00C0022072110B4044C586184F8EF
:10073C0023C010469A6110BC1961704700ED00E0AF
:10074C0090F821200346022A06D004229A63002244
:10075C00012083F8202070474FF0010C1A6800200C
:10076C00116821F00E011160116821F00101116076
:10077C00D3E90F120CFA02F24A60002283F821C06E
:10078C0083F82020704700BF90F821200346022AEE
:10079C0003D0042201209A637047026810B51168D7
:1007AC001B4821F00E0111601168824221F00101F9
:1007BC00116022D017498A421DD014318A421ED0B2
:1007CC0014318A421ED014318A421ED014318A420E
:1007DC0014BF4FF080724FF48012012000210E4C98
:1007EC0062605A6B83F8210083F820100AB1184616
:1007FC009047002010BD1022EFE70122EDE74FF4E7
:10080C008072EAE74FF48052E7E74FF48032E4E776
:10081C00080002401C000240000002402DE9F04F8D
:10082C000D6883B0002D00F0C3800022804E9246EC
:10083C001346DFF80082804F06E0013335FA03F4EB
:10084C0002F1040200F0B48001249C4034EA050E4D
:10085C0004EA050CF1D14D68122D00F2AC80122D7A
:10086C001AD8DFE805F0B3C5C1CC19191919191933
:10087C0019191919191919BDC800DFF8C0E1754506
:10088C0000F0A4800EF5702E754500F09F80AEF53B
:10089C00801E754500F09A80BCF1FF0F9CBF864608
:1008AC0093464FF00F0584BF00F1040EA2F1200B0C
:1008BC00DEF800400AFA0BF905FA0BFB24EA0B04EC
:1008CC0044EA0904CEF800404C6814F0805F00F054
:1008DC008580D6F818E003F003094EF0010EC6F837
:1008EC0018E0D6F818E04FEA89090EF0010ECDF8A1
:1008FC0004E0DDF804E023F0030E0EF1804E0EF55B
:10090C00803EDEF808B005FA09F52BEA0505DFF89C
:10091C0030B1584513D00BF5806B584579D0DFF8C2
:10092C0024B158456ED0DFF820B158450CBF4FF0BC
:10093C00030B4FF0040B0BFA09F945EA0905CEF845
:10094C000850DFF808E114F4801FDEF8085014BFDB
:10095C0045EA0C0525EA0C05CEF80850DFF8ECE06A
:10096C0014F4001FDEF80C5014BF45EA0C0525EA00
:10097C000C05CEF80C50DFF8D4E014F4003FDEF890
:10098C00045014BF45EA0C0525EA0C05CEF80450BA
:10099C002E4D14F4803F2C681DD044EA0C042C60BE
:1009AC000D68013335FA03F402F104027FF44CAF05
:1009BC0003B0BDE8F08F454508D07FF65EAFBD4271
:1009CC0004D0DFF88CE075457FF466AF8D683DBBD5
:1009DC004FF0040A60E724EA0C042C600D682CE745
:1009EC00CC6804F1040A57E7CC6804F1080A53E711
:1009FC00D1F80CA050E7CC6804F10C0A4CE74FF08E
:100A0C00000A49E74FF0020B0BFA09F945EA090510
:100A1C0095E74FF0010B0BFA09F945EA09058EE74A
:100A2C00012D4FF0080A0CBF0461446134E700BF8C
:100A3C0000100240000022100000311000001210C3
:100A4C000008014000100140001401400004014066
:100A5C0000003210044A5169014200D1704708B5B8
:100A6C005061FFF7C1FB08BD0004014030B370B505
:100A7C0004464CF6CC45D4E9003145F25550A268F9
:100A8C001D60186059609A60FFF7E0FD2368054609
:100A9C00DA6890070DD041F23C36FFF7D7FD401BCA
:100AAC00B042236802D9DA68910709D1DA68920753
:100ABC00F3D14AF6AA2200201A6070BD01207047BB
:100ACC00032070BD03464AF6AA221B6800201A6058
:100ADC00704700BF002800F0E4812DE9F041036865
:100AEC000446DD0782B035D599494A6802F00C02FC
:100AFC00042A00F0ED804A6802F00C02082A00F08B
:100B0C00E3806368B3F5803F10D0002B00F00A81BE
:100B1C00B3F5A02F00F080818D4B1A6822F480323F
:100B2C001A601A6822F480221A6004E0884A13685A
:100B3C0043F480331360FFF789FD854E054605E0CD
:100B4C00FFF784FD401B642800F2E88033689A03A9
:100B5C00F6D523689F0728D57D4A516811F00C0FF4
:100B6C0000F09680516801F00C01082900F08C808F
:100B7C002369002B00F016810122764B744E1A600B
:100B8C00FFF764FD054605E0FFF760FD401B0228FA
:100B9C0000F2C48033689807F6D53368626923F095
:100BAC00F80343EAC203336023681A0729D45D07AC
:100BBC004BD5674BDA69D00000F184800125DA69E6
:100BCC0042F08052DA61DB6903F080530093009BA2
:100BDC00614E3368D90540F19180E368012B00F038
:100BEC00F280002B00F0BE80052B594B1A6A00F0E6
:100BFC00208122F001021A621A6A22F004021A629F
:100C0C00E6E0A369002B4CD00122524B504EC3F8A6
:100C1C008024FFF71BFD054604E0FFF717FD401B82
:100C2C0002287BD8736A9B07F7D54C4B4C4A1B6840
:100C3C00A2FB03235B0A019300BF019B5A1E019286
:100C4C00002BF9D123685D07B3D4E369C3B1404DE0
:100C5C006A6802F00C02082A00F0CD800022022BF8
:100C6C003C4B1A6600F0ED80FFF7F0FC044604E004
:100C7C00FFF7ECFC001B022850D82B689B01F7D423
:100C8C00002002B0BDE8F0815268D6033FF570AF8A
:100C9C002F4A1268950725D52269012A22D00120F6
:100CAC00EFE72C4A2A4EC2F88034FFF7CFFC0546FA
:100CBC0004E0FFF7CBFC401B02282FD8736A9F0778
:100CCC00F7D4BFE7002583E74A68D0037FF519AF57
:100CDC001F4A126891037FF53DAF6268002A7FF4CA
:100CEC0039AFDCE71A4960690A6822F0F80242EA77
:100CFC00C0020A601A077FF55AAF82E7336843F4E3
:100D0C0080733360FFF7A2FC07463368DA053FF5C2
:100D1C0064AFFFF79BFCC01B6428F6D9032002B01C
:100D2C00BDE8F0810A4D2B6823F480332B602B68CF
:100D3C0023F480232B60FFF789FC064604E0FFF7C1
:100D4C0085FC801B6428E9D82B689B03F7D400E74B
:100D5C0000100240000042420070004000000020E1
:100D6C00D34D6210504E41F28838336A23F00103A0
:100D7C003362336A23F004033362FFF767FC0746E0
:100D8C0004E0FFF763FCC01B4045C7D8336A9807E3
:100D9C00F7D4002D3FF459AF434AD36923F0805365
:100DAC00D36152E7414A404E1360FFF74FFC0546B2
:100DBC0004E0FFF74BFC401B0228AFD833689907BF
:100DCC00F7D42368F1E6384A136A43F0010313623F
:100DDC00FFF73CFC41F288380646334F04E0FFF73E
:100DEC0035FC801B404599D83B6A9B07F7D5002DF5
:100DFC003FF42BAFD0E7012B3FF451AF6B68226A65
:100E0C0003F4803191427FF44AAF606A03F47013AB
:100E1C00181A18BF012034E703F18043A3F53C33C3
:100E2C001A6842F480221A601A6842F480321A60FE
:100E3C0081E642F004021A621A6A42F001021A6256
:100E4C00C6E7FFF703FC064605E0FFF7FFFB801B38
:100E5C0002283FF663AF2B689901F6D4236AB3F5E9
:100E6C00803F05D16A68A16822F400320A436A60A7
:100E7C0001200D4D616A6A680B4322F474120B4910
:100E8C0013436B600866FFF7E1FB044605E0FFF7D0
:100E9C00DDFB001B02283FF641AF2B689A01F6D50B
:100EAC00EEE60120704700BF0010024000004242F5
:100EBC000E4A536803F00C01082901D00C48704706
:100ECC000C48C3F38341DB03405C0AD508495368E3
:100EDC0001FB00F0084AC3F34043D35CB0FBF3F0D2
:100EEC007047064B03FB00F0704700BF0010024038
:100EFC0000127A00901700088C17000800093D00BA
:100F0C00002800F08C80494A2DE9F0411368044612
:100F1C0003F007038B420D460CD2136823F0070332
:100F2C000B431360136803F007038B4202D00120BC
:100F3C00BDE8F0812368980714D5590704D53C49BE
:100F4C004A6842F4E0624A601A0704D538494A6894
:100F5C0042F460524A603649A0684A6822F0F002B6
:100F6C0002434A60DF0720D56268314B012A1B68B7
:100F7C0057D0022A50D09907D9D52D4E41F2883836
:100F8C00736823F0030313437360FFF75FFB07469B
:100F9C0004E0FFF75BFBC01B404545D873686268F3
:100FAC0003F00C03B3EB820FF3D1204A136803F068
:100FBC000703AB4209D9136823F007032B431360D3
:100FCC00136803F00703AB42B1D123685A0706D567
:100FDC001749E0684A6822F4E06202434A601B0742
:100FEC0007D5134A2169536823F4605343EAC103BC
:100FFC005360FFF75DFF03460D4A0E4952680E48D9
:10100C00C2F30312895C0D4ACB4000681360FFF7F2
:10101C00DBFA0020BDE8F0819801AED487E701200F
:10102C0070479E03A9D482E7032081E70020024089
:10103C00001002407C17000808000020000000206F
:10104C00044B054A5B680549C3F30223CB5C10686B
:10105C00D8407047001002400000002074170008B0
:10106C00044B054A5B680549C3F3C223CB5C10688B
:10107C00D840704700100240000000207417000890
:10108C00026802F10C0353E8003F23F4907302F161
:10109C000C0C4CE800310029F3D102F1140353E895
:1010AC00003F23F0010302F1140C4CE8003100293D
:1010BC00F3D1036B012B05D02022002380F84220B2
:1010CC000363704702F10C0353E8003F23F0100355
:1010DC0002F10C0C4CE800310029F3D1ECE700BF15
:1010EC0038B504460368C1681A691C4D22F4405295
:1010FC000A431A6182680069D9680243606921F465
:10110C00B05121F00C0102430A43DA605A69A1691B
:10111C0022F440720A43AB425A611BD0FFF790FF96
:10112C000346626803EB8303920003EB8303B3FB78
:10113C00F2F364250A492068A1FB0342520905FB1E
:10114C0012331B013233A1FB0313120102EB5312B6
:10115C00826038BDFFF784FF0346E2E700380140A8
:10116C001F85EB5170B310B590F84130044603F075
:10117C00FF0213B32423226884F84130D36820463D
:10118C0023F40053D360FFF7ABFF00224FF0200C89
:10119C0023681046196921F490411961596921F0AD
:1011AC002A015961D96841F40051D960626484F80C
:1011BC0041C084F842C0626310BD80F84020FFF744
:1011CC0063F9D7E7012070472DE9F8431C4690F8E6
:1011DC004130202B4BD1884609B1174612B901205A
:1011EC00BDE8F88321234FF000090546C0F8449070
:1011FC0080F84130FFF72AFAAB680646B3F5805FFA
:10120C00AF84EF8436D0EA8C2B6892B212B917E017
:10121C00671C1DD11A681006FAD5B8F1000F20D042
:10122C0018F8012B5A60EA8C013A92B2EA84EA8CE3
:10123C0092B2002AEED11A68520604D4611C25D150
:10124C001A685206FAD52023002085F84130C7E7EA
:10125C00FFF7FCF9801B844212D38CB12B68DA683F
:10126C00D8E739F8022BC2F308025A60DBE70220F8
:10127C00BDE8F8832B69002BC5D1C1469846C2E75F
:10128C00202385F841300320BDE8F883FFF7DEF911
:10129C00831B9C42F4D3002CF2D02B68DA68CFE786
:1012AC0090F84230202B03D101B11AB901207047BC
:1012BC000220704710B44FF0220C002481620169A7
:1012CC0004630368C2858285446480F842C019B106
:1012DC00DA6842F48072DA605A69002042F0010246
:1012EC005A61DA6810BC42F02002DA60704700BF25
:1012FC00704700BF704700BF08B50023406AC38524
:10130C00C384FFF7F7FF08BD704700BF90F8423069
:10131C00222B57D183680168B3F5805F826A44D071
:10132C00002B4BD10369002B48D14B68DBB21370F7
:10133C00826A0132C38D8262013B9BB2C385002B52
:10134C0040D14FF0200C026800B5D16883B021F079
:10135C002001D160D16821F48071D160516921F0F4
:10136C000101516180F842C04363016B01292AD10C
:10137C00036302F10C0353E8003F23F0100302F166
:10138C000C0C4CE800310029F3D11368DB0606D5B0
:10139C00002301931368019353680193019B818D82
:1013AC00FFF7B2FF03B05DF804FB0369002BBCD15F
:1013BC004B68C3F3080322F8023BBBE74B6803F00E
:1013CC007F03B4E77047FEF7BBFE03B05DF804FB88
:1013DC0070B5056804462B682A4613F00F0FEE68AB
:1013EC0082B069696FD1990602D5B50600F1C38048
:1013FC00216B01290BD0180602D5310600F1918022
:10140C005B0602D5750600F1AB8002B070BDD80644
:10141C00F1D5F106EFD500230193136801935368BE
:10142C000193019B53695D0640F10681E06B0368F3
:10143C005B689BB2002BE8D0A18D9942E5D9E3857E
:10144C008369202B36D002F10C0353E8003F23F4C0
:10145C00807302F10C0545E800310029F3D102F14B
:10146C00140353E8003F23F0010302F1140545E88F
:10147C0000310029F3D102F1140353E8003F23F0AB
:10148C00400302F1140545E800310029F3D1202373
:10149C0084F84230216302F10C0353E8003F23F03F
:1014AC00100302F10C0545E800310029F3D1FFF7D8
:1014BC0047F9A18D02236363E38D2046C91A89B2D3
:1014CC00FFF722FFA1E711F001016CD116F4907F18
:1014DC008ED0DA070AD5F00540F1E980626C580726
:1014EC0042F0010262644FD5002960D1980764D59F
:1014FC00190700F19E80626C002A86D09A0602D5EC
:10150C00B30600F1D8806B69626C03F0400302F003
:10151C00080253EA0206204656D1FFF7EBFE66643A
:10152C0073E794F84130212B7FF46FAFA168236AE5
:10153C00B1F5805F00F0C480591C21621B785360A8
:10154C00E38C013B9BB2E384002B7FF45EAFD3684A
:10155C0023F08003D360D36843F04003D36054E797
:10156C002021D368204623F04003D36084F8411037
:10157C00FFF7BEFE49E702B0BDE87040FFF7C6BEFC
:10158C00F005ABD45A0712D4980716D50029AFD062
:10159C00626C42F0040262641A07ACD5626C42F0D1
:1015AC0008026264A7E7D807EAD45A073CD5626CF4
:1015BC00980742F002026264EAD418079BD506F041
:1015CC0020020A4397D0E9E7FFF75AFD6B695E06E4
:1015DC0026D505F1140353E8003F23F0400305F131
:1015EC00140141E8003262B1226802F1140353E89D
:1015FC00003F23F0400302F1140040E800310029C1
:10160C00F3D1E06B60B1344B4363FFF7BDF80028B6
:10161C003FF4FBAEE06B436B02B0BDE87040184783
:10162C002046FFF767FEF0E69907B1D41A07B5D448
:10163C0061E7B206B2D45EE7E18DE38DA08D9BB27B
:10164C0089B2002B3FF4E1AE411A89B200293FF474
:10165C00DCAE02F10C0353E8003F23F4907302F16B
:10166C000C0545E800300028F3D102F1140353E8CF
:10167C00003F23F0010302F1140545E80030002877
:10168C00F3D1202384F84230206302F10C0353E899
:10169C00003F23F0100302F10C0545E80030002850
:1016AC00F3D1022320466363FFF72EFEADE65A0703
:1016BC003FF51CAF68E72046FFF728FE256822E7B8
:1016CC00216900297FF438AF33F8021BC1F30801FC
:1016DC005160236234E700BF05130008034602443F
:1016EC00934200D1704703F8011BF9E770B500264F
:1016FC000C4D0D4C641BA410A64209D100F028F827
:10170C0000260A4D0A4C641BA410A64205D170BDDC
:10171C0055F8043B98470136EEE755F8043B9847DB
:10172C000136F2E7A0170008A0170008A017000860
:10173C00A41700080A44914200F1FF3300D170470E
:10174C0010B511F8014B914203F8014FF9D110BDBE
:10175C00F8B500BFF8BC08BC9E467047F8B500BF92
:08176C00F8BC08BC9E46704762
:10177400000000000102030400000000000000005B
:10178400010203040607080901020000020304051C
:0C179400060708090A0B0C0D0E0F1010C0
:0417A000310100080B
:0417A4000D0100082B
:0C17A80000127A00010000001000000098
:040000050800058961
:00000001FF
